:020000040800F2
:10000000C816002099010008571A0008591900085D
:10001000551A0008D90400088921000800000000D2
:1000200000000000000000000000000001010008C6
:10003000650500080000000045010008BF1D00081C
:10004000B3010008B3010008B3010008B3010008C0
:10005000B3010008B3010008B301000869050008F6
:10006000B3010008B3010008B3010008B3010008A0
:10007000B3010008B3010008DD040008E90400082A
:10008000B3010008B301000881040008B3010008AF
:10009000B3010008B3010008B3010008B301000870
:1000A000B3010008B3010008B3010008B301000860
:1000B000B3010008B3010008B3010008B301000850
:1000C000B3010008B3010008B3010008B301000840
:1000D000B301000871210008B30100087D21000868
:1000E000B3010008B3010008B3010008DFF80CD029
:1000F00000F0A4F9004800474D260008C81600206B
:10010000224B19680868B0E8F00F80F30988BFF344
:100110006F8F4FF0000080F311884EF00D0E704786
:100120000000000006480068006880F3088862B696
:1001300061B6BFF34F8FBFF36F8F00DF00BF00BF0B
:1001400008ED00E0EFF30980BFF36F8F0F4B1A68E3
:1001500020E9F00F106008B54FF0500080F31188CF
:10016000BFF34F8FBFF36F8F02F0FAFE4FF0000026
:1001700080F31188BDE8084019680868B0E8F00FFE
:1001800080F30988BFF36F8F704700BF28000020FD
:10019000EFF3058070470000064880470648004797
:1001A000FEE7FEE7FEE7FEE7FEE7FEE7FEE7FEE727
:1001B000FEE7FEE72D1E0008ED000008202A04DB04
:1001C000203A21FA02F00021704721FA02F3D040D0
:1001D000C2F12002914008431946704740EA0103EA
:1001E0009B0703D009E008C9121F08C0042AFAD2ED
:1001F00003E011F8013B00F8013B521EF9D27047B1
:10020000D2B201E000F8012B491EFBD27047002258
:10021000F6E710B513460A4604461946FFF7F0FF05
:10022000204610BD421C10F8011B0029FBD1801A8A
:10023000704710B5002200E0521C835C8C5CA34226
:1002400001D1002BF8D1D8B2E1B2401A10BDF0B400
:1002500080EA0102D40F4200B2EB410F02D2024603
:10026000084611464A0042D0C30DDDB2C1F3C75261
:10027000AD1A202D35DAC1F3160141F4000204B1A4
:100280005242C5F1200602FA06F12A411044B3EBAE
:10029000D05F23D0C4B1012DA0EBC35009DCF0BC6A
:1002A0004FF0004202EAC352DBB200F5000000F05A
:1002B00097B8400000F1807000EBC350A0F180704F
:1002C00040EAD170490009E0490841EAC071A0EB59
:1002D000C35000F50000400800EBC350F0BC00F034
:1002E00076B86142012202EB4101001BF6E7F0BC47
:1002F000704781F00041AAE780F00040A7E780EA5C
:10030000010210B502F00043400022D04A001FD085
:10031000010E01EB1261C0F35600C2F3560240F425
:10032000000042F40002A0FB022000047F39140404
:1003300000D0401C50EA124001D44000491EC2B215
:100340000C0604EBD010401C4008802A02D003E0C9
:10035000002010BD20F00100002900DA0020184321
:1003600010BD96230022114600F03AB82DE9F05F47
:100370000546002092469B46884606468146402414
:100380001BE02846414647462246FFF717FF5346E3
:100390005A46C01A914110D311461846224600F021
:1003A0005FF82D1A67EB01084F4622460120002115
:1003B00000F056F817EB00094E41201EA4F101048D
:1003C000DFDC484631462A464346BDE8F09F002917
:1003D000A8BF7047401C490008BF20F001007047CB
:1003E00010B4B0FA80FC00FA0CF050EA010404BF2B
:1003F00010BC704749B1CCF1200421FA04F411FA81
:100400000CF118BF012121430843A3EB0C01CB1DC4
:100410004FEA00614FEA102042BF002010BC704735
:1004200000EBC35010440029A4BF10BC7047401C0F
:10043000490008BF20F0010010BC7047064C074D72
:1004400006E0E06840F0010394E8070098471034A4
:10045000AC42F6D3FFF74EFEAC360008CC360008AF
:10046000202A04DB203A00FA02F100207047914074
:10047000C2F1200320FA03F31943904070470000B3
:10048000014800F01DB90000A000002070B504462E
:1004900000688168C943C9071CD1816821F0010146
:1004A000816000F05FFC05460FE000BF00F05AFCE1
:1004B000401B022809D9A06A40F01000A062E06A3F
:1004C00040F00100E062012070BD20688068C043F8
:1004D000C007EBD0002070BDFEE70000014800F02F
:1004E00073BA000094050020014800F06DBA0000C6
:1004F000500500200E48016821F0807101600168FC
:1005000041F0807101600B48016821F00101016038
:10051000016841F0010101600021416000BF00BF9E
:1005200000BF406808B100207047012070470000FC
:10053000FCED00E0001000E031B5084D6C6800F003
:10054000DFFD0749B0FBF1F000994843009068686F
:100550000099001B8842FAD338BD0000001000E06B
:1005600040420F007047000010B50B4C0821204698
:1005700000F0EEFB012804D101221021204600F0FA
:10058000ECFB022000F0FAFA20460022BDE8104001
:10059000102100F0E2BB00000008014070471FB5C9
:1005A000012ACDE9001205D000210291694600F030
:1005B000F1FA1FBD03210391F8E77047F8B5002455
:1005C000009490F824202546012A12D0012280F8B8
:1005D00024204A681F23072A0DD20668776B521E13
:1005E00002EB820293409F430B6893401F43776363
:1005F00019E00220F8BD06680D2A0AD2376BD21F17
:1006000002EB820293409F430B6893401F43376382
:1006100009E0F76A0D3A02EB820293409F430B68B0
:1006200093401F43F7620A68072306680A2A0AD321
:10063000F7680A3A02EB420293409F438B6893406B
:100640001F43F76008E0376902EB420293409F4383
:100650008B6893401F4337610A68102A01D0112A22
:1006600020D1124B02689A4217D193681B0219D409
:10067000936843F4000393600968102912D10C4970
:100680000C4A0968B1FBF2F101EB8101490000E07D
:10069000491E00910029FBD104E0816A41F020014C
:1006A0008162012480F824502046F8BD00240140D6
:1006B0002400002040420F0070470068C06C704763
:1006C00010B5044600684168890626D50168890787
:1006D00023D5A16AC90603D4A16A41F40071A162BD
:1006E0008168C1F34241072910D1E16871B94168BD
:1006F00021F020014160A06A20F48070A062A06A0D
:10070000C00403D4A06A40F00100A0622046FFF7B5
:10071000D3FF21686FF01200086020684168090665
:100720002ED5016849072BD5A16AC90603D4A16A51
:1007300041F40051A1628168C1F30231072909D057
:100740004168490515D48168C1F34241072910D198
:10075000E16871B9416821F080014160A06A20F42C
:100760008050A062A06AC00503D4A06A40F00100D6
:10077000A0622046FFF721FF21686FF00C0008609F
:100780002068416849060DD50068C0070AD0A06AF4
:1007900040F48030A062204600F094F821686FF0A9
:1007A0000100086010BD00002DE9F0414FF0000786
:1007B00004003D467ED0A06A002628B9E66284F88F
:1007C0002460204600F080F82046FFF75FFEA16A13
:1007D000C90600D420B1A06A40F01000A06269E010
:1007E000A16A21F4885141F00201A1626268E169C5
:1007F000E3680A4347EA43010A43A1684FF480775C
:10080000B94209D0012907D05FF00001D4F814C023
:10081000BCF1010F02D00AE03946F7E7F3B1A36A51
:1008200043F02003A362E36A43F00103E362236819
:10083000D3F804C02CF4694C4CEA010CC3F804C092
:1008400021688B68DFF870C003EA0C0313438B60E8
:10085000A168B9420BD0012909D00CE0DFF85CC0D7
:10086000A3690CEB43330B4343F40061DFE7218AB8
:100870000D05A5F580152168CB6A23F470032B4381
:10088000CB62216889680E4B1940914208D1E6621B
:10089000A16A21F0020141F00101A162BDE8F081ED
:1008A000A06A20F0020040F01000A062E06A40F070
:1008B0000100E0620120F1E7FDF7E1FF00E0FFFF4A
:1008C000FE0E1FFF7047000000B585B000210091AB
:1008D00001910291039100681249884220D1124887
:1008E000816941F400718161816901F400710491B1
:1008F000816941F0040181618069694600F004006A
:1009000004902020009003200190084800F042F954
:1009100000220521122000F095FA122000F086FA3C
:1009200005B000BD00240140001002400008014055
:1009300010B590F821100024022903D0042181630E
:1009400001243DE001680A6822F00E020A60016895
:100950000A6822F001020A601A4A0168914201D134
:10096000012121E0174A1432914201D110211BE0EC
:10097000144A2832914201D1891515E0114A3C32BE
:10098000914201D189140FE00E4A5032914202D1B6
:100990004FF4803108E00B4A6432914202D14FF4A7
:1009A000801101E04FF08071064A083A5160012140
:1009B00080F82110002180F82010416B01B1884798
:1009C000204610BD080002402DE9F05FC16B0C68A5
:1009D00001680B68D0F840C0042202FA0CF2494DBD
:1009E000DFF824A1494E4A4FDFF828B1DFF828E1AB
:1009F00022422CD05A072AD50A68920603D40A68E4
:100A000022F004020A600168A94201D1042219E01F
:100A1000514501D1402215E0B14202D14FF480622C
:100A200010E0B94202D14FF480420BE0594502D1A7
:100A30004FF4802206E0714502D14FF4800201E0BC
:100A40004FF080622F4908394A60C16A3BE04FF09D
:100A5000020808FA0CF818EA040F4FF000094FF0EA
:100A6000010235D05FEA837832D50B689B0605D446
:100A70000B6823F00A030B6080F821200168A9426B
:100A800001D1022219E0514501D1202215E0B142E5
:100A900002D14FF4007210E0B94202D14FF400527B
:100AA0000BE0594502D14FF4003206E0714502D106
:100AB0004FF4001201E04FF00072124908394A6009
:100AC00080F82090816A00291AD0BDE8F05F0847BD
:100AD000082505FA0CF5254212D01B0710D50B6826
:100AE00023F00E030B6090F84010C36B02FA01F183
:100AF0005960826380F8212080F82090016BE2E742
:100B0000BDE8F09F080002401C0002403000024097
:100B100044000240580002406C00024030B528B347
:100B200008C8134914221944B1FBF2F18900C163CA
:100B300010498163022141771A6843F6F0718A43B4
:100B4000D0E900142143D0E902452C432143046934
:100B500021434469214384692143114319600021E1
:100B60004163012242770177084630BD012030BD44
:100B7000F8FFFDBF0000024070470000044910B5B7
:100B80000A68024202D00860FFF7F6FF10BD0000BD
:100B9000140401402DE9F84FDFF890A100220AF17A
:100BA000040B144601274FF00F090BF1040E00BF90
:100BB0000B6807FA04F52B40AB4274D1DFF870C123
:100BC0004E68A6EB0C0866452BD00DDC032E34D006
:100BD00005DC36B3012E19D0022E2FD11BE0112EC9
:100BE00016D0122E2AD119E0B8F5881F19D006DCCC
:100BF000B8F5803F15D0B8F5801F1FD111E0B8F5CA
:100C0000001F0ED0B8F5041F18D10AE0CA6815E01D
:100C1000CA68121D12E0CA6808320FE0CA680C32B6
:100C20000CE08A682AB1012A4FF0080203D045611E
:100C300004E0042202E0056100E00022FF2B01D85D
:100C4000064601E000F104064FEA840501D9A5F14A
:100C50002005D6F800C009FA05F82CEA080C02FABB
:100C600005F54CEA050CC6F800C04D68ED0057D5F7
:100C7000304DAE6946F00106AE61AD6924F0030661
:100C800005F0010500952C4D06EB050CDCF808502D
:100C9000A6074FEA167809FA08F6B543274EB04280
:100CA00002D1002610E03BE0254EB04201D10126E2
:100CB0000AE0244EB04201D1022605E0224EB042A5
:100CC00001D1032600E0042606FA08F62E43CCF8EC
:100CD00008604D68DAF80060ED03554601D51E4303
:100CE00000E09E432E604D68DBF80060AD035D467A
:100CF00001D51E4300E09E432E604D68DEF8006083
:100D0000ED02754601D51E4300E09E432E604D68FE
:100D1000AD020E4D2E6801D51E4300E09E432E60AD
:100D2000641C102CFFF444AFBDE8F88F00040140B0
:100D300000001110001002400000014000080140B6
:100D4000000C014000100140001401400C0401405F
:100D50008068084000D0012070470AB101617047E7
:100D60000904FBE701488068704700001800002074
:100D700002488168027811448160704718000020A1
:100D8000074810B5016841F010010160032000F030
:100D900079F80F2000F006F800F024F8002010BDCC
:100DA0000020024070B50D4D04464FF47A7128784A
:100DB000B1FBF0F00A490968B1FBF0F000F07EFBEE
:100DC00048B9102C07D200222146501E00F03AF8F4
:100DD00000206C6070BD012070BD00001800002074
:100DE000240000200F4808B5816941F001018161AC
:100DF000816901F001010091C16941F08051C16137
:100E0000C069002200F0805000900F21901E00F079
:100E100019F80548416821F0E06141F00071416036
:100E200008BD0000001002400000014000F01F0259
:100E3000012191404009800000F1E020C0F800113C
:100E400070470000F0B40E4B1B680C46C3F302233E
:100E5000C3F10705042D00D90425191D072901D266
:100E6000002300E0DB1E012606FA05F1491E2140A1
:100E700099409E40761E16403143F0BC00F0ECBD18
:100E80000CED00E0064900F0070208684FF6FF038A
:100E9000184040EA0220034A1043086070470000EF
:100EA0000CED00E00000FA052DE9F8430546007856
:100EB000354CC00754D0E0690026C00008D4E06972
:100EC00040F08050E061E069012600F08050009021
:100ED0002E480168C90512D40168804641F480712A
:100EE0000160FFF73FFF074605E000BFFFF73AFF4D
:100EF000C01B642823D8D8F80000C005F6D5206AA6
:100F000010F4407021D0A98801F4407181421CD0B6
:100F1000206A1F49012220F440700A6000220A6002
:100F20002062C00711D0FFF71DFF074641F2883845
:100F300008E000BFFFF716FFC11B414502D903209F
:100F4000BDE8F883206A8007F4D5206A696820F438
:100F50004070084320621EB1E06920F08050E061DB
:100F60002878800705D56068A96820F440400843C8
:100F700060602878C00605D56068E96820F48000C4
:100F8000084360600020DBE7001002400070004072
:100F9000400442422DE9F047DFF8548105460E46F1
:100FA000D8F8000000F00700B0420CD2D8F80010CA
:100FB00021F007013143C8F80010D8F8000000F014
:100FC0000700B0426FD128684A4C810712D540070C
:100FD00003D5606840F4E06060602878000703D5BE
:100FE000606840F4605060606068A96820F0F000BC
:100FF000084360602878C00744D06868012816D08C
:101000002168022816D0890700294CDA616821F08E
:10101000030101436160FFF7A5FE6968074641F2DD
:10102000883001290ED00229814618D026E0216897
:101030008903E9E78901E7E7FFF794FEC11B49450A
:1010400001D918E081466068C0F381000128F3D11E
:1010500018E000BFFFF786FEC11B49450BD860684A
:10106000C0F381000228F5D10CE000BFFFF77AFE43
:10107000C11B494502D90320BDE8F087606810F024
:101080000C0FF3D1D8F80010404601F00701B1422F
:101090000BD9016821F0070131430160006800F0BD
:1010A0000700B04201D00120E6E72878400705D5C7
:1010B0006068E96820F4E060084360602878000711
:1010C00006D56068296920F4605040EAC10060607C
:1010D00000F03CF86168084AC1F30311515CC84054
:1010E000064908600F20FFF75DFE0020C4E70000FE
:1010F000002002400010024070360008240000204A
:101100000148006870470000240000200448054999
:1011100000684968044AC1F30221515CC840704725
:1011200024000020001002408036000804480549D1
:1011300000684968044AC1F3C221515CC840704745
:1011400024000020001002408036000812A185B063
:101150000FC98DE80F0014A0144A0068049051686C
:10116000134801F00C03042B10D0082B0ED1C1F34F
:101170008343C9031DF803000AD5516804AAC1F3CB
:101180004041515C0A4A5043B0FBF1F005B0704752
:1011900008494843FAE70000020304050607080966
:1011A0000A0B0C0D0E0F101001020000001002407F
:1011B00000127A0000093D002DE9F84F044600783E
:1011C000B94DC00748D06868C0F38100012807D036
:1011D0006868C0F38100022809D16868C00306D599
:1011E0002868800338D5606800286FD034E06068D4
:1011F000B0F5803F0BD010B1B0F5A02F11D028680A
:1012000020F480302860286820F4802002E02868DC
:1012100040F480302860606888B1FFF7A3FD06467F
:1012200009E0286840F480202860F0E7FFF79AFD85
:10123000801B642875D828688003F7D50CE0FFF779
:1012400091FD064605E000BFFFF78CFD801B64287A
:10125000F0D828688003F7D42078944E80074FF0A8
:1012600001094FF000083BD5686810F00C0F07D05B
:101270006868C0F38100022809D16868C00306D4F9
:101280002868800714D5206901281FD110E0206943
:10129000B0B1C6F80090FFF765FD074605E000BF56
:1012A000FFF760FDC01B0228C4D828688007F7D567
:1012B0002868616920F0F80040EAC10028600FE06A
:1012C000C6F80080FFF74EFD074606E0E9E000BFE4
:1012D000FFF748FDC01B022823D828688007F7D4F1
:1012E000207800072CD57248A169D9B1C0F80090C8
:1012F000FFF738FD074604E0FFF734FDC01B022866
:101300000FD8686A8007F7D56A484FF4FA51006829
:10131000B0FBF1F0009000BF0098411E0091FAD29E
:101320000EE080E0C0F80080FFF71CFD074604E0F7
:10133000FFF718FDC01B022875D8686A8007F7D42C
:101340002078400760D5E8690027C00008D4E86924
:1013500040F08050E861E869012700F0805000907B
:1013600055480168C90513D40168834641F480716A
:101370000160FFF7F7FC824606E000BFFFF7F2FCD2
:10138000A0EB0A0064284ED8DBF80000C005F5D5B4
:10139000E06801280AD008B1052813D0286A20F097
:1013A00001002862286A20F0040002E0286A40F068
:1013B00001002862E06841F2883B98B1FFF7D2FC57
:1013C00082460BE0286A40F004002862EEE700BF86
:1013D000FFF7C8FCA0EB0A0159455AD8286A8007D4
:1013E000F6D50CE0FFF7BEFC824605E0FFF7BAFC3D
:1013F000A0EB0A0159454CD8286A8007F6D41FB1E2
:10140000E86920F08050E861E06988B36968C1F359
:101410008101022945D00228C6F8608004D0FFF778
:10142000A1FC044638E034E0FFF79CFC074604E0EA
:10143000FFF798FCC01B02282BD828688001F7D43E
:10144000206AB0F5803F05D16868A16820F40030BB
:1014500008436860D4E908010843696821F47411FD
:1014600008436860C6F86090FFF77CFC044606E01D
:1014700015E000BFFFF776FC001B022809D828689A
:101480008001F7D50BE000BFFFF76CFC001B0228C2
:1014900002D90320BDE8F88F28688001F4D4002029
:1014A000F8E70120F6E70000001002400000424289
:1014B00080044242240000200070004010B5401E0D
:1014C000B0F1807F01D3012010BD4FF0E0246061B6
:1014D0000F21601700F0C0FA0020A06107202061F2
:1014E000002010BD7047000070B502680446106807
:1014F000D168536910F00F0F50D003F0010501F4CB
:10150000907635435DD0C20705D0CA0503D5E26B9E
:1015100042F00102E263420705D5DA0703D0E26B2D
:1015200042F00202E263820705D5DA0703D0E26BDC
:1015300042F00402E263020705D5DA0703D0E26B4A
:1015400042F00802E263E26B002A33D0800604D541
:10155000880602D5204600F0A3FC20684069E16BB4
:10156000C0F38010090700D428B3204600F08AFC9D
:101570002068416949061AD5416921F0400141615D
:10158000606BA0B11B494163606BFFF7D1F9002884
:1015900010D0606B416BBDE870400847830610D5E2
:1015A0008B060ED52046BDE8704000F079BC204681
:1015B000FFF798FF70BD2046FFF794FF0020E0631F
:1015C00070BD030606D50B0604D52046BDE8704065
:1015D00000F06ABD4006F3D54806F1D5D168204633
:1015E00021F04001D160202184F8391000F0B3F9D6
:1015F00070BD0000751E000870B5040004D094F89A
:101600003900002510B106E0012070BD84F8385083
:10161000204600F023F8242084F839002068C168AF
:1016200021F40051C160204600F086FC2068016969
:1016300021F4904101612068416921F02A01416152
:101640002068C16841F40051C160E563202084F83E
:10165000390084F83A00002070BD0000F0B585B074
:1016600000240094019402940394064603684148C0
:101670003F4D022103220715AB424CD1836943F44D
:1016800080438361836903F480430493836943F057
:10169000040383618069384D00F00400049008025F
:1016A000CDE90001039269462846FFF773FACDE9B8
:1016B0000074694628460294FFF76CFA304D2F48B3
:1016C0008027C5E90004C5E902472C616C61AC6163
:1016D0002846EC61FFF722FA08B1FEF75FFF756359
:1016E0006E622648274D143801C5102091C5254843
:1016F00045F810496C61AC61EC61FFF70FFA08B175
:10170000FEF74CFF35630022052125206E62FFF7AE
:1017100099FB252028E01C4DAB4227D1C36943F437
:101720008023C361C36903F480230493836943F076
:10173000080383618069CDE9007100F00800CDE9FC
:101740000320124D69462846FFF724FAE814CDE934
:101750000004694628460294FFF71CFA002205217E
:101760002720FFF76FFB2720FFF760FB05B0F0BDD8
:1017700000380140001002400008014058000240BB
:10178000500500209405002000480040000C014056
:101790002DE9F843044690F83A00994616460D465E
:1017A00020284FD195B18EB194F83800012849D046
:1017B000012084F838000027E763222084F83A00EB
:1017C000FFF7D0FAA6858046E68531E00120BDE826
:1017D000F883E08D401EE085A0684346B0F5805F49
:1017E0004FF000024FF020012046CDF8009004D0C9
:1017F00000F08BFC98B10320E9E700F086FC00289C
:10180000F9D1206900282068406803D0C1B225F8CA
:10181000011B0DE0C0F3080125F8021B08E0206958
:1018200000282068406801D000F07F0005F8010B17
:10183000E08D0028CDD1202084F83A0084F838705B
:101840000020C4E70220C2E790F83A30202B22D1D2
:10185000F9B1F2B190F83830012B1CD08162828549
:10186000C2850021C163222280F83A2080F8381016
:101870000168CA6842F48072CA6001684A6942F02D
:1018800001024A610068C16841F02001C160002086
:101890007047012070470220704770472DE9F843D8
:1018A000044690F839001F4616460D46202850D1B0
:1018B000A5B19EB194F8380001284AD0012084F8DF
:1018C00038004FF00008C4F83C80212084F839002B
:1018D000FFF748FAA6848146E68426E00120BDE8A9
:1018E000F883E08C401EE084A0684B46B0F5805F32
:1018F0004FF000024FF080012046009703D000F027
:1019000004FCE8B90DE000F000FCC8B928882168A3
:10191000C0F308004860206908B16D1C05E0AD1CEB
:1019200003E0216815F8010B4860E08C0028D8D14D
:101930004B46002240212046009700F0E6FB08B10C
:101940000320CCE7202084F8390084F83880002078
:10195000C5E70220C3E77047FEE700003EB500245C
:101960000D480094019402948460C4600949446164
:101970000160012505614FF460214460C161FEF7FB
:1019800013FF0520CDE90005694602940248FEF7E1
:1019900015FE3EBD00240140A000002070B586B0B9
:1019A000002428480094019402940394816941F032
:1019B00020018161816901F020010491816941F078
:1019C00004018161816901F004010491816941F0A0
:1019D0000801816180691C4E00F00800049000221B
:1019E00050213046FFF7B9F9022518480095CDE996
:1019F000010469463046FFF7CDF80820CDE9000420
:101A0000694630460294FFF7C5F85020009001AABD
:101A1000012082E8310069463046FFF7BBF8280212
:101A2000CDE9000469460A480294FFF7B3F80022A2
:101A300005210720FFF706FA0720FFF7F7F906B0A0
:101A400070BD0000001002400008014000001110AD
:101A5000000C0140FEE770470907090E002806DA6E
:101A600000F00F0000F1E02080F8141D704700F135
:101A7000E02080F8001470472DE9F047012700208E
:101A8000364C014644F82010401CC0B20528F9D35A
:101A9000334D012204212846FEF781FD0022042156
:101AA0002846FFF75AF944F25060FEF745FD01223F
:101AB00004212846FFF751F91E20FEF73DFD0022C4
:101AC00004212846FEF76BFD0026B146A8460025F6
:101AD00006E06D1CEDB20120FEF72EFDFF2D05D0B6
:101AE00004214046FFF734F9B842F2D004214046C1
:101AF000FFF72EF90746FF2D18D0042E12D3F0075A
:101B000010D14FEAD90054F82010490044F82010B1
:101B10001C2D03D941F0010144F8201009F1010006
:101B200000F0FF09761CF6B2552ED0D3D4E900326E
:101B3000D4E902109D180E1835442469EDB2A5426F
:101B400007D1084C23706270A21C11705070BDE860
:101B5000F087BDE8F04704A000F018BB8C0000201F
:101B60000008014000000020455252002DE9F041DC
:101B7000174F4FF48C75282442F2D0560022402192
:101B80003846FFF7EAF82846FEF7D6FC1148FEF77C
:101B900094FD05462046FEF7CFFC01224021384641
:101BA000FFF7DBF83046FEF7C7FC2846FEF7D9FB07
:101BB0000949FEF7A4FB0949FEF7A1FB0849FEF716
:101BC00098FB084C0849FEF79AFB6060BDE8F0817D
:101BD00000080140A00000200000A03B7B142E3E26
:101BE000CDCCCC3D0000002000007A444FF4FA64D4
:101BF00001F0CEFBFFF740FFFFF7B8FF204601F0F2
:101C00001DF9F5E78CB04E4D4FF400774C49FF239A
:101C10003A46A1F14000FFF7BBFD4948FEF702FB41
:101C200000286DD04648FEF7FDFA06281DD2412156
:101C300044A000F0ABFA4248FEF7F4FA052807D2B8
:101C4000E87830380090AB782A7800213FA007E090
:101C50002879303800902978EB786A783BA03039C1
:101C6000303A303B00F092FA46E0002634493CA07E
:101C700000F08CFA3248FEF7D5FA13283CD1002444
:101C800007E0285D2F2801D03A2801D1761CF6B252
:101C9000641C2B48FEF7C6FAA042F2D8052E2BD1C1
:101CA000A87C697CEA7BAB7B30383039303A303BFA
:101CB000CDE90A10CDE908326A7A2B7A297BE87AD5
:101CC000303A303BCDE9043230383039CDE90601C5
:101CD000E879A9792A79EB7830383039CDE90210E2
:101CE000303A303BCDE900326B782A78532120A07E
:101CF000303A303B00F04AFA39461148FEF787FA8D
:101D00002BA12D48FEF795FAB0B90D485421C438DF
:101D1000D0E902238DE80E00D0E9002348211DA060
:101D200000F034FA39462448FEF771FA22490422B9
:101D3000A1F52070FFF788FD0A2001F07FF865E724
:101D40005001002025303278000000002530327824
:101D50002530327825303278253032780000000086
:101D6000427566666572203A205B25735D0D0A0038
:101D70002530327825303278253032782530327867
:101D80002530327825303278253032782530327857
:101D90002530327825303278253032782530327847
:101DA0002530327825303278253032780000000036
:101DB00054454D500000000050030020FEE710B5D0
:101DC000FEF7D6FFBDE8104000F0D8BC30B593B0A8
:101DD00028216846FEF71BFA14210AA8FEF717FA15
:101DE000002401200F9410941194010412948DE8A2
:101DF000130004904FF4E010CDE908100225079578
:101E00006846FFF7D9F90F20CDE90A056802CDE948
:101E10000C4002210AA80E94FFF7BCF8A803119009
:101E20000F950FA8FFF740F813B030BD0D480168BB
:101E300041F00101016041680B4A114041600168B5
:101E40000A4A11400160016821F480210160416863
:101E500021F4FE0141604FF41F0181600449C00379
:101E600008607047001002400000FFF8FFFFF6FE18
:101E700008ED00E010B5406A0021C185C184FFF77C
:101E800031FB10BD0168CA6822F49072CA60016813
:101E90004A6922F001024A61202180F83A10704715
:101EA00010B590F83A10222901D0022010BD8168A7
:101EB000B1F5805F11D00169002901681FD0496820
:101EC00001F07F03816A4A1C82620B70C18D491E3A
:101ED0000904090CC18518D02BE00269816A002A27
:101EE0000268526805D0D2B20A80816A491C8162B8
:101EF000ECE7C2F308020A80816A891CF7E74A68A6
:101F0000816A4B1C83620A70E0E70168CA6822F0AC
:101F10002002CA600168CA6822F48072CA6001683F
:101F20004A6922F001024A61202180F83A10FFF745
:101F3000B4FC002010BD00002DE9F041044600680B
:101F40000169E26821F44051114301612169A068EF
:101F50000843616908432168CA6841F20C639A43E7
:101F60000243CA6020684169A26921F440711143AB
:101F700041614C4920686425322688423CD1FFF7F4
:101F8000D5F800EBC00101EB001061688900B0FBDF
:101F9000F1F7FFF7CBF800EBC00101EB001061682F
:101FA000B0468900B0FBF1F0B0FBF5F06FF018011E
:101FB000484307EB800106EB0110B0FBF5F000F0A1
:101FC000F006FFF7B3F800EBC00101EB0010616809
:101FD0008900B0FBF1F0B0FBF5F006EB0016FFF75F
:101FE000A5F800EBC00101EB001061688900B0FBAF
:101FF000F1F7FFF79BF83BE0FFF788F800EBC00133
:1020000001EB001061688900B0FBF1F7FFF77EF883
:1020100000EBC00101EB00106168B0468900B0FB25
:10202000F1F0B0FBF5F06FF01801484307EB8001C9
:1020300006EB0110B0FBF5F000F0F006FFF766F8D4
:1020400000EBC00101EB001061688900B0FBF1F00A
:10205000B0FBF5F006EB0016FFF758F800EBC001F7
:1020600001EB001061688900B0FBF1F7FFF74EF853
:1020700000EBC00101EB001061688900B0FBF1F0DA
:10208000B0FBF5F06FF01801484307EB800108EB57
:102090000110B0FBF5F0216800F00F0030448860BB
:1020A000BDE8F0810038014090F83910212901D0B5
:1020B000022070478168B1F5805F016A0BD04A1C2D
:1020C0000262026809785160C18C491E0904090C3A
:1020D000C1840ED017E009880268C1F3080151607D
:1020E00001690029016A02D0491C0162ECE7891CE0
:1020F000FBE70168CA6822F08002CA600068C16814
:1021000041F04001C160002070472DE9F041984640
:1021100017460E460446069D1DE0681C1BD02DB1D7
:10212000FEF720FEA0EB0800A84214D92068C16881
:1021300021F4D071C1602068416921F00101416141
:10214000202084F8390084F83A00002084F8380010
:102150000320BDE8F0812068006836EA000004D062
:102160000020B842D9D00020F3E70120F9E70000B1
:102170000148FFF7B9B90000D00000200148FFF77F
:10218000B3B9000010010020FEE700000FB4054BBA
:1021900010B503A9044A029800F018F810BC5DF8C5
:1021A00014FB0000312600088800002002E008C867
:1021B000121F08C1002AFAD170477047002001E0C1
:1021C00001C1121F002AFBD1704700002DE9FF4F0B
:1021D0008DB00F460546002606E025280BD0DDE928
:1021E0000F1290476D1C761C28780028F5D111B08D
:1021F0003046BDE8F08F0024A246A1460122EC49FA
:1022000000E0044315F8013F203B02FA03F00842C6
:10221000F7D128782A2810D06FF02F022878A0F163
:102220003001092914D80AEB8A0102EB410144F07C
:10223000020400EB010A6D1CF0E701CF5FEA000A1F
:1022400003D544F40054CAF1000A44F002046D1CA2
:1022500028782E2817D115F8010F44F004042A28F5
:102260000ED06FF02F022878A0F1300109290AD88A
:1022700009EB890102EB410100EB01096D1CF2E75A
:1022800057F8049B6D1C28786C280FD006DC4C286E
:1022900017D068280DD06A2814D104E0742810D013
:1022A0007A280FD10DE044F400140AE044F48014BD
:1022B00001E044F440146978814202D104F58014AD
:1022C0006D1C6D1C2A786E2A1FD00CDC632A31D05D
:1022D00004DC002A8BD0582A11D1A3E0642A68D0EC
:1022E000692A0CD165E0732A2ED004DC6F2A73D0E2
:1022F000702A04D19BE0752A6FD0782A6ED01046E0
:10230000DDE90F129047761C50E1C4F30250022819
:1023100006D0032809D0042801CF09D0066045E182
:1023200001CFF117C0E9006140E101CF06803DE136
:1023300006703BE117F8040B8DF8000000208DF8C3
:102340000100EB46012003E057F804BB4FF0FF30DB
:1023500061074FF0000102D40DE008F10101884649
:1023600049450FDA8045F8DB1BF808100029F4D145
:1023700008E008F1010188468142FADB1BF80810E9
:102380000029F6D1DDE90F23AAEB0800814621469A
:1023900000F036F9304400EB080604E0DDE90F12E6
:1023A0001BF8010B9047B8F10108F7D221464846C7
:1023B000F7E00A21C4F302534FF0000B0891022BFF
:1023C00004D001CFC117032B09D00AE0FF1D27F06D
:1023D0000707F7E8020108E032E01FE020E000B262
:1023E000C117042B01D140B2C117031E71F10003C4
:1023F00007DA4FF0000CD0EB0C006CEB01012D2341
:1024000002E0230504D52B238DF82430012303E0BB
:10241000E30701D02023F7E7984658E00A2110E0AF
:1024200010210EE010204FF0000B08900CE010215E
:102430004FF0000B44F004044FF00809089103E04A
:1024400008214FF0000B0891C4F30253022B04D073
:1024500001CF0021032B06D006E0FF1D27F0070760
:10246000F7E8020103E080B2042B00D1C0B24FF0C4
:10247000000823072BD5702A07D0DDF820C08CF088
:10248000100C5CEA0B0C05D00EE040238DF82430D4
:10249000012308E050EA010306D030238DF82430F0
:1024A0008DF8252002239846DDF820C08CF0080C1A
:1024B0005CEA0B0C0BD150EA010301D1630706D58E
:1024C00030238DF824304FF00108A9F10109582A72
:1024D00004D038A20B9208AA0A920BE03AA2F9E7BC
:1024E0005B46089AFDF742FF0B9B9B5C0A9A521EC3
:1024F0000A92137050EA0102F2D10A98ADEB000083
:1025000000F1200B600702D524F4803401E04FF085
:102510000109D94502DDA9EB0B0000E0002000EB2A
:102520000B0141440890AAEB010AE00306D4DDE95F
:102530000F232146504600F063F806444FF000098F
:1025400008E009A911F80900DDE90F12904709F127
:102550000109761CC145F4DBE0030CD5DDE90F234E
:102560002146504600F04CF8064404E0DDE90F1225
:1025700030209047761C0899481E08900029F5DC09
:1025800008E00A980A990078491C0A91DDE90F12BF
:102590009047761CBBF10001ABF1010BF1DC214649
:1025A0005046DDE90F2300F019F806446D1C1BE6C8
:1025B0000928010030313233343536373839616219
:1025C00063646566000000003031323334353637DD
:1025D0003839414243444546000000002DE9F041AE
:1025E000044600251E461746880404D405E03946F3
:1025F0002020B0476D1C641EF9D52846BDE8F08147
:102600002DE9F041044600251E469046C80301D539
:10261000302700E02027880404D505E041463846ED
:10262000B0476D1C641EF9D52846BDE8F081000056
:1026300038B504468DF8000002230122694602489D
:10264000FFF72CF9204638BDD000002092B0FEF7ED
:1026500097FBFFF7BBFBFFF7A1F93648416941F053
:10266000010141614069002200F001001090052144
:102670000E20FEF7E7FB0E20FEF7D8FB0022052117
:102680000F20FEF7DFFB0F20FEF7D0FB2B482A4977
:10269000002401604FF4E131C0E901140C25C4604D
:1026A000C0E904458461C461FEF7A6FF23482449BC
:1026B000403001604FF41651C0E90114C460C0E914
:1026C00004458461C461FEF797FFFFF747F9FDF702
:1026D00011FF1CA0FFF75AFD04221E491748FFF7FF
:1026E000B3F80FA80F9400F046F81B4C14221B49B6
:1026F00060616846FDF772FD0021684600F048F809
:102700001649A0601422143105A8FDF767FD0021C9
:1027100005A800F03DF81149E060142228310AA80C
:10272000FDF75CFD00210AA800F032F8206100F0FE
:102730001DF8FEE70010024000380140D0000020E4
:102740000048004050524F4752414D20535441528F
:10275000540D0A0050030020000000203436000809
:1027600001460020842900D0C81C704710B500F035
:10277000BBFB002010BD012000F070BC10B500F0C4
:10278000F9FD012803D0BDE8104000F051BC10BD98
:102790003EB504460D46B0F90800FFF7E1FF02A977
:1027A000CDE90001208A2B4682B2D4E9001000F066
:1027B000B5FD012801D000203EBD02983EBD0000BD
:1027C0002DE9F041184C0F460546E6682068001DCB
:1027D00000F07EFA38B9206890F82C10012088406B
:1027E000216981432161681C07D137B12168BDE8A7
:1027F000F0410E48091D00F0A3BA20683544B542E7
:102800004560216805D2A06BBDE8F041091D00F0CC
:102810007FBA606B091D00F07BFAA06A854200D286
:10282000A562BDE8F081000028000020B406002069
:102830002DE9F041054600F08FFA2E4CA068401CAF
:10284000A06020682C4F10B1606940B32DE0256076
:10285000A068012829D1002606EB860007EB80003E
:1028600000F048FA761C072EF6D323488C3000F08F
:1028700041FA2148A03000F03DFA1F48B43000F082
:1028800039FA1D48C83000F035FA1B48DC3000F03A
:1028900031FA19488C3060631430A06305E0206879
:1028A000E96AC06A884200D82560606A401C60629C
:1028B000E96A0120226988401043206101EB810010
:1028C00007EB8000291D00F03BFA00F065FA606913
:1028D00000280CD02068E96AC06A884207D20749FC
:1028E0004FF080500860BFF34F8FBFF36F8FBDE88C
:1028F000F081000028000020D805002004ED00E051
:1029000070B5114E114C17E000F022FB3068B8B1E1
:1029100000F02EFE00F020FAF068C568281D00F0D7
:10292000D7F9A068401EA0606068401E606000F09B
:1029300033FA284600F042F860680028E4D170BD00
:1029400000F016FEF8E70000A00600202800002096
:102950002DE9F041856B174604460026026C82B1D2
:10296000C7B1E068FDF73AFCE168206C091AE16044
:102970002268914202D26168081AE060022F16D0E4
:1029800017E02068A8B9606800F06CFD06460020DA
:1029900060600EE0A068FDF721FC216CA06808448F
:1029A000A0606168884204D32068A06001E005B19E
:1029B0006D1E6D1CA5633046BDE8F08110B5044660
:1029C000006B00F0FDF92046BDE8104000F0F8B9BA
:1029D00010484FF44061420706D0C01D0D4920F059
:1029E0000700411AC1F540610B4A00230144C2E9C6
:1029F00000030839103A21F0070111604B600B60A9
:102A00000B1AC0E9001393604FF000405360D06090
:102A100070470000C806002074000020074C4FF0EB
:102A20008056074DFFF76CFF20680128FAD92E6009
:102A3000BFF34F8FBFF36F8FF4E70000D80500207E
:102A400004ED00E02DE9F0479A46DDE9098481466E
:102A50006FF00303206B03EB82021044089D20F00B
:102A60000706700707D0502080F31188BFF34F8FFF
:102A7000BFF36F8FFEE723180A5C83F834200A5CEB
:102A800012B1401C1028F6D3002784F84370072D9C
:102A900000D30625E562C4E91157201D00F035F981
:102AA00004F1180000F031F92461C5F107006462F7
:102AB000A061E76484F8507052464946304600F001
:102AC000F5F82060B8F1000F01D0C8F80040BDE86B
:102AD000F087000030B5114900E011460A688242D3
:102AE000FBD34B685C18844203D1406818444860AB
:102AF000084643681C18944209D1084C103C2468CD
:102B0000A24209D052681A4442600A681268026000
:102B1000814200D0086030BD0460F9E774000020F5
:102B20000648416B096829B1416BC968C9684968A1
:102B3000816270474FF0FF31FAE700002800002063
:102B400008484068401C4FF0500080F3118804D0C2
:102B5000BFF34F8FBFF36F8FFEE7BFF34F8FBFF30E
:102B60006F8FFEE77C0000202DE9F041044600F065
:102B7000F3F894F9455004F1240609E0606A48B17D
:102B8000304600F0BBFC08B100F07EF96D1E6DB25E
:102B9000002DF3DC4FF0FF3684F8456000F0FCF8C0
:102BA00000F0DAF894F9445004F1100709E02069C4
:102BB00048B1384600F0A2FC08B100F065F96D1E7E
:102BC0006DB2002DF3DC84F84460BDE8F04100F004
:102BD000E3B800002DE9F0410546002700F0B8F900
:102BE000314E306808B9FFF7F3FEF06805424BD16B
:102BF000C5B3083568070ED005F00700C0F108001E
:102C00000544680707D0502080F31188BFF34F8F29
:102C1000BFF36F8FFEE72DB37068854234D822482A
:102C2000103001460C6801E020460C466168A9425C
:102C300002D221680029F7D131688C4224D007687C
:102C40002168016060680837411B10290FD960199D
:102C5000420708D0502080F31188BFF34F8FBFF395
:102C60006F8FFEE710E041606560FFF733FF61683A
:102C70007068401A7060B268904200D2B060F0682C
:102C800001430020C4E9000100F072FC780707D07E
:102C9000502080F31188BFF34F8FBFF36F8FFEE793
:102CA0003846BDE8F08100006400002010B5031F25
:102CB0004FF080741C601B1F21F001011960191F67
:102CC000024B0B60143940380A6010BD412B0008DC
:102CD000D0E9013201699A60D0E901235A604A685B
:102CE000824201D182684A60002202610868401E67
:102CF0000860704700F108014FF0FF32C0E901128F
:102D0000C1600161002101607047002101617047CD
:102D100030B50B685A1C02D000F1080202E00269CB
:102D200004E02246546825689D42FAD953684B60F6
:102D300099608A60516008610168491C016030BD7A
:102D400042684A6093688B6093685960916008613B
:102D50000168491C01607047502080F31188BFF35F
:102D60004F8FBFF36F8F0A494868401C48600128A5
:102D70000CD10848006810F0FF0F07D0502080F3F6
:102D80001188BFF34F8FBFF36F8FFEE770470000CE
:102D90007C00002004ED00E00849486828B1401E8E
:102DA000486001D180F311887047502080F311886A
:102DB000BFF34F8FBFF36F8FFEE700007C00002052
:102DC00070B5002827D0144DA0F108046168E868A8
:102DD000014207D1502080F31188BFF34F8FBFF31A
:102DE0006F8FFEE722683AB1502080F31188BFF35D
:102DF0004F8FBFF36F8FFEE78143616000F0A8F84B
:102E000060686968084468602046FFF763FEBDE8B3
:102E1000704000F0ADBB70BD6400002006484FF468
:102E20007A710068B0FBF1F14FF0E020491E41617A
:102E300007210161704700002400002010B5020046
:102E400014D00F48006B38B1502080F31188BFF3C5
:102E50004F8FBFF36F8FFEE700F07AF80021104626
:102E6000FFF7AEFC00F084FB002807D105494FF0C6
:102E700080500860BFF34F8FBFF36F8F10BD00000D
:102E80002800002004ED00E001490120C8617047DE
:102E90002800002010B50C4650B1094909681831C6
:102EA000FFF736FF2046BDE810400121FFF788BC40
:102EB000502080F31188BFF34F8FBFF36F8FFEE771
:102EC0002800002028B107490A6A0260C9684160E9
:102ED0007047502080F31188BFF34F8FBFF36F8F7F
:102EE000FEE70000280000201CB515480024CDE9AD
:102EF00000402346802213A1144800F00FFA012855
:102F000009D0401C1AD1502080F31188BFF34F8F95
:102F1000BFF36F8FFEE7502080F31188BFF34F8F10
:102F2000BFF36F8F06484FF0FF312C3881620121CB
:102F30004161C460BDE81C4000F040B81CBD000009
:102F40005400002049444C45000000001D2A0008A0
:102F50000248016B491C01637047000028000020F3
:102F60001448016B11B10121C16170470021C16199
:102F70000169B1FA81F1C1F11F0101EB81020E4932
:102F800051F822306BB101EB820101F108034A686C
:102F900052684A609A4201D152684A60D168016021
:102FA0007047502080F31188BFF34F8FBFF36F8FAE
:102FB000FEE7000028000020D80500201CB51949B4
:102FC00008780190FF20087008788DF800009DF8BF
:102FD0000000154A00F0500010700720906005E0D6
:102FE0009DF800305B008DF80030401E9DF80030E9
:102FF0001B06F5D4000200F4E060906001980870B0
:103000000A48016841F470010160016841F07041B3
:103010000160FFF703FF00205060FDF783F80020F8
:103020001CBD000000E400E07C00002020ED00E07A
:1030300010B5502080F31188BFF34F8FBFF36F8F0F
:1030400000F0ACF918B104494FF08050086000203E
:1030500080F3118810BD000004ED00E010B50246B9
:103060000021012000F00CF8041E07D0002141606F
:1030700001600B460A46C16000F06AF8204610BDA8
:1030800070B50E46050013D0D6B105FB06F04830EA
:10309000FFF7A0FD040009D004F1480120468EB1DD
:1030A0000160C0E90F56012100F00EF8204670BD06
:1030B000502080F31188BFF34F8FBFF36F8FFEE76F
:1030C0000020E4E70060ECE770B50D46040025D071
:1030D000FFF742FED4E90F20216802FB0011616076
:1030E0000021A1632168A1600A46D4E90F01401EB6
:1030F00000FB0121E16021464FF0FF3001F8440F51
:10310000487004F110008DB1FFF7F4FD04F12400C4
:10311000FFF7F0FDFFF740FE012070BD502080F367
:103120001188BFF34F8FBFF36F8FFEE7216900292E
:10313000F0D000F0E3F90028ECD004494FF08050C3
:103140000860BFF34F8FBFF36F8FE3E704ED00E03C
:103150002DE9FF4782B01D468A464FF00008040063
:1031600003D0BAF1000F08D011E0502080F311888D
:10317000BFF34F8FBFF36F8FFEE7206C38B1502045
:1031800080F31188BFF34F8FBFF36F8FFEE7022DDF
:103190000AD1E06B012807D0502080F31188BFF3DB
:1031A0004F8FBFF36F8FFEE700F0E4F83F4F4FF013
:1031B00000094FF0805648B9049838B1502080F388
:1031C0001188BFF34F8FBFF36F8FFEE7FFF7C4FD8A
:1031D000A06BE16B884207D3022D05D00498D0B1D3
:1031E000B8F1000F1AD01EE02A4651462046FFF7DC
:1031F000AFFB616A19B104F1240000F07FF920B13E
:103200003E60BFF34F8FBFF36F8FFFF7C5FD012007
:1032100006B0BDE8F087FFF7BFFD22E06846FFF784
:1032200051FE4FF00108FFF7B7FDFFF791FEFFF7E2
:1032300093FD94F94400401C01D184F8449094F922
:103240004500401C01D184F84590FFF7A5FD04A975
:10325000684600F02DF830B12046FFF785FC00F0FD
:1032600087F90020D4E7FFF777FDA06BE16B884278
:1032700013D1FFF791FD04F110000499FFF70AFE46
:103280002046FFF771FC00F073F900289ED13E60E4
:10329000BFF34F8FBFF36F8F98E7FFF77DFD204699
:1032A000FFF762FC00F064F990E7000004ED00E035
:1032B00070B50D46040019D005B3FFF74DFD164A51
:1032C000D1682868431C0FD02368126A934202D049
:1032D00062688A421AD96268891A814216D2401AF3
:1032E00028602046FFF7EEFD002410E0502080F318
:1032F0001188BFF34F8FBFF36F8FFEE7502080F32D
:103300001188BFF34F8FBFF36F8FFEE70124FFF7E4
:1033100043FD204670BD0000280000202DE9FF5F1E
:103320008346DDE90E87994616468A469000FFF7E8
:1033300051FC05001AD05420FFF74CFC040012D0B9
:1033400025630021CDE90241CDE900874B46324695
:1033500051465846FFF776FB2046FFF769FA0120F1
:1033600004B0BDE8F09F2846FFF72AFD4FF0FF307C
:10337000F6E700000548416919B1006B18B100205B
:10338000704701207047022070470000280000208D
:103390000148C06870470000280000202DE9F04176
:1033A0002E4C0027206B40B1A069401CA061E06951
:1033B00000B101273846BDE8F081E668761CE6607A
:1033C00013D1606B006838B1502080F31188BFF3CF
:1033D0004F8FBFF36F8FFEE7606BA16B6163A063DC
:1033E000206A401C2062FFF79BFBA06ADFF8708018
:1033F000864209D3606B006880B1606BC068C568A5
:10340000686886420DD2A0622068C06A00EB800125
:1034100058F821000128CAD90127C8E74FF0FF302A
:10342000F1E7281DFFF754FCA86A18B105F1180050
:10343000FFF74EFCE86A01212269814011432161B6
:1034400000EB800108EB8100291DFFF779FCE86A99
:103450002168C96A8842CDD30127CBE72800002024
:10346000D805002070B504004FF0000140D0214D78
:103470002868844207D0502080F31188BFF34F8F13
:10348000BFF36F8FFEE7A06C38B1401EA064636C81
:10349000E26A9A422CD040B12AE0502080F3118891
:1034A000BFF34F8FBFF36F8FFEE7201DFFF710FCB8
:1034B000114A012150B9E06A00EB800352F8233031
:1034C00023B92B6901FA00F083432B61606CE06241
:1034D000C0F10700A061E06A2B69814019432961AE
:1034E00000EB800002EB8000211DFFF729FC012189
:1034F000084670BD28000020D80500202DE9F041C5
:10350000C068C468ACB104F118000746FFF7E0FBDF
:10351000154D286B0126A0B139461448FFF710FC61
:10352000E06A2968C96A88421CD90120EE61BDE8B9
:10353000F081502080F31188BFF34F8FBFF36F8F5E
:10354000FEE7201DFFF7C4FBE16A2A6906FA01F0D5
:103550001043286101EB81000449B43901EB80007C
:10356000211DDBE70020E2E7280000208C06002078
:103570002DE9F0472C4D00242746286B38B1FFF782
:10358000EBFB286B401E2863286B40B146E05020BF
:1035900080F31188BFF34F8FBFF36F8FFEE7A968E9
:1035A000224E0120D1B3A6F1B40980463068E8B1BB
:1035B000F068C46804F11800FFF78AFB201DFFF7CC
:1035C00087FBE06A2A6908FA00F11143296100EBE0
:1035D000800109EB8100211DFFF7B2FBE06A296839
:1035E000C96A8842E2D3C5F81C80DFE70CB1FFF757
:1035F00097FAAC6944B14646FFF7D0FE00B1EE61E0
:10360000641EF9D10020A861E86938B10849012792
:1036100038070860BFF34F8FBFF36F8FFFF7BCFB16
:103620003846BDE8F0870000280000208C06002006
:1036300004ED00E0A0360008ED1B000801000000CA
:10364000000000008000000088360008051C00080B
:103650000000000000000000800000009436000818
:10366000BD1D0008FDFF00000000000080000000FC
:103670000000000000000000010203040607080922
:1036800000000000010203046D795461736B303255
:10369000000000006D795461736B3033000000004E
:1036A00064656661756C745461736B00CC36000898
:1036B000000000208C000000AC21000858370008F2
:1036C0008C0000203C160000BC2100080000000017
:1036D00000000000000000000000000000000000EA
:1036E00000000000010000001000000000000000C9
:1036F00000A24A04000000000000000000000000DA
:1037000000000000000000000000000000000000B9
:1037100000000000000000000000000000000000A9
:103720000000000000000000000000000000000099
:103730000000000000000000000000000000000089
:10374000000000000000000000000000AAAAAAAAD1
:08375000000000000000000071
:04000005080000ED02
:00000001FF
